:020000040800F2
:100000007805002045010008E1240008E3240008E9
:10001000E7240008EB240008EF240008000000009B
:10002000000000000000000000000000F3240008B1
:10003000F524000800000000F7240008F924000857
:100040005F0100085F0100085F0100085F01000810
:100050005F0100085F0100085F0100085F01000800
:100060005F0100085F0100085F0100085F010008F0
:100070005F0100085F0100085F0100085F010008E0
:100080005F0100085F0100085F0100085F010008D0
:100090005F0100085F0100085F0100085F010008C0
:1000A0005F0100085F0100085F0100085F010008B0
:1000B0005F010008E93000085F0100085F010008E7
:1000C0005F0100085F0100085F0100085F01000890
:1000D0005F010008FB2400085F010008152A0008E2
:1000E0005F0100085F0100085F0100085F01000870
:1000F0005F0100085F0100085F0100085F01000860
:100100005F0100085F0100085F0100085F0100084F
:100110005F0100085F0100085F0100085F0100083F
:100120005F0100085F0100085F0100085F0100082F
:10013000DFF80CD003F0AEFD00480047ED230008C7
:10014000780500200648804706480047FEE7FEE79E
:10015000FEE7FEE7FEE7FEE7FEE7FEE7FEE7FEE777
:1001600047020008310100080CB500200190009002
:100170006C48006840F480306A49086000BF6948F4
:10018000006800F4003000900198401C0190009835
:1001900018B90198B0F5A06FF1D16248006800F479
:1001A000003010B10120009001E000200090009884
:1001B000012843D15C48006840F010005A490860AB
:1001C0000846006820F0030008600846006840F018
:1001D0000200086053484068524948600846406839
:1001E00048600846406840F48060486008464068BF
:1001F00020F47C1048600846406840F4E8104860ED
:100200000846006840F08070086000BF45480068FC
:1002100000F000700028F9D04248406820F0030048
:10022000404948600846406840F00200486000BF0E
:100230003C48406800F00C000828F9D10CBD10B50E
:10024000FFF792FF10BD10B53648006840F001007E
:1002500034490860084640683449084031494860DC
:1002600008460068324908402E4908600846006880
:1002700020F4802008600846406820F4FE004860B2
:100280004FF41F008860FFF7DAFF4FF00060294944
:10029000086010BD10B5002100200022214B5B68D2
:1002A00003F00C0121B1042906D0082928D107E068
:1002B000214B224C236027E01F4B204C236023E07E
:1002C000184B5B6803F47010164B5B6803F48032C4
:1002D000022303EB904022B9194B4343174C236090
:1002E0000DE0104B5B6803F4003323B1144B434320
:1002F000124C236003E0104B4343104C236003E097
:100300000D4B0E4C236000BF00BF064B5B68C3F370
:1003100003130C4CE15C094B1B68CB40074C23607A
:1003200010BD000000100240002002400000FFF855
:10033000FFFFF6FE08ED00E000127A00000000204A
:1003400000093D000400002031490143314A116099
:10035000704770B5002100230F22C47804B32D4CE0
:10036000246804F4E064C4F5E064210AC1F10403E4
:10037000CA40447804FA03F1847814402143090107
:10038000254C0678A155047804F01F050124AC40E3
:1003900005786D11AD0005F1E025C5F8004109E0D3
:1003A000047804F01F050124AC401C4D067876113A
:1003B00045F8264070BD1A4A0A400243154B1B1FE0
:1003C0001A60704739B1134A121D12680243114B6B
:1003D0001B1D1A6006E00F4A121D126882430D4B66
:1003E0001B1D1A607047042808D14FF0E0210969ED
:1003F00041F004014FF0E022116107E04FF0E021ED
:10040000096921F004014FF0E022116170470000FA
:100410000000FA050CED00E000E400E080E100E0FF
:1004200080FFFF1F10B50446FA48844208D101211D
:10043000401500F07FFE0021601500F07BFE17E004
:10044000F548844208D10121001500F073FE002117
:10045000201500F06FFE0BE0F048844208D1012126
:10046000C80300F067FE00214FF4004000F062FE78
:1004700010BD30B50246002000235068E84C2040F3
:100480000D790C6844EA0524204350609068E54CDF
:100490002040D1E902542C434D7944EA45042043DD
:1004A0009060D06A20F470000C7C641EE4B2234398
:1004B00040EA0350D06230BD0021016001714171FA
:1004C0008160C16001210174704721B1826842F0EE
:1004D0000102826003E0826822F0010282607047BC
:1004E00021B1826842F48072826003E0826822F463
:1004F00080728260704710B50023CBB21AB1446895
:100500001C43446002E044689C43446010BD816821
:1005100041F0080181607047014600208A6802F0BE
:1005200008020AB1012000E000207047816841F014
:10053000040181607047014600208A6802F00402CD
:100540000AB1012000E00020704721B1826842F426
:10055000A002826003E0826822F4A00282607047F9
:10056000014600208A6802F480020AB1012000E0FE
:100570000020704710B50A4600210023416821F48D
:100580006041531E41EA4331416010BD21B14268D0
:1005900042F40062426003E0426822F4006242607A
:1005A0007047F0B504460D4600200021092D11DDED
:1005B000E068A5F10A0606EB4607072606FA07F1EA
:1005C0008843A5F10A0606EB460603FA06F108433E
:1005D000E0600CE0206905EB4507072606FA07F105
:1005E000884305EB450603FA06F108432061072A14
:1005F0000FDA606B561E06EB86071F2606FA07F118
:100600008843561E06EB860605FA06F1084360632A
:1006100022E00D2A0FDA206BD61F06EB86071F2675
:1006200006FA07F18843D61F06EB860605FA06F19F
:100630000843206310E0E06AA2F10D0606EB86078E
:100640001F2606FA07F18843A2F10D0606EB86067F
:1006500005FA06F10843E062F0BD21B1826842F478
:100660008012826003E0826822F480128260704708
:100670000146C86C80B2704766484C3000687047CD
:1006800021B1426842F48062426003E0426822F491
:1006900080624260704721B1426842F480524260F9
:1006A00003E0426822F48052426070470A4600210B
:1006B000816821F4E04111438160704721B1826873
:1006C00042F40042826003E0826822F400428260C9
:1006D000704721B1826842F40212826003E08268AE
:1006E00022F4021282607047014600208A6802F4F8
:1006F00000120AB1012000E000207047F0B5044666
:100700001546002000220026092911DDE068A1F12C
:100710000A0707EB470C072707FA0CF29043A1F1F1
:100720000A0707EB470703FA07F21043E0600CE003
:10073000206901EB410C072707FA0CF2904301EB0B
:10074000410703FA07F210432061A06BC0F3015682
:10075000EF1C06F1010CA7EB0C0707EB870C1F271A
:1007600007FA0CF29043EF1C06F1010CA7EB0C0703
:1007700007EB870701FA07F21043A063F0BD10B53D
:100780000A4600210023816B21F44011531E41EAE7
:100790000351816310BD08B5002300930090009BB6
:1007A0000B440093009B1A6008BD08B50246002068
:1007B0000090009201F12800009B184400900098DE
:1007C000006880B208BD0A4600214168164B1940F6
:1007D0001143416070474162826270470A460021BE
:1007E000416821F01F0111434160704740B1094940
:1007F0000831096841F40001064A0832116007E037
:1008000004490831096821F40001024A08321160E4
:10081000704700000024014000280140003C0140D6
:10082000FFFEF0FFFDF7F1FFFFFD3FFF0246002056
:1008300013680B400BB1012000E000207047CA4351
:100840000260704770B502460020002300240B129E
:100850005568CEB205EA060415681D4015B10CB105
:10086000012000E0002070BD00220A12D343036083
:100870007047000001684FF6FE72114001600021D0
:10088000016041608160C1608D49884208D18C4916
:100890000839496841F00F01894A083A51608AE0F5
:1008A00087491431884208D185490839496841F09F
:1008B000F001834A083A51607DE08149283188423D
:1008C00008D17F490839496841F470617C4A083A87
:1008D000516070E07A493C31884208D17849083942
:1008E000496841F47041764A083A516063E07449BE
:1008F0005031884208D172490839496841F4702161
:100900006F4A083A516056E06D496431884208D117
:100910006B490839496841F47001694A083A5160E5
:1009200049E067497831884208D165490839496802
:1009300041F07061624A083A51603CE06149884286
:1009400006D1011F096841F00F01021F116032E05A
:100950005C491431884208D15A49091F096841F09D
:10096000F001584A121F116025E05649283188428B
:1009700008D15449091F096841F47061514A121F96
:10098000116018E04F493C31884208D14D49091F98
:10099000096841F470414B4A121F11600BE049494C
:1009A0005031884207D14749091F096841F4702135
:1009B000444A121F1160704710B50022026847F6C2
:1009C000F0739A430C6A8B6823430C6923434C6988
:1009D00023438C692343CC6923434C6A23438C6AA9
:1009E00023431A430260CB6843600B6883604B6803
:1009F000C36010BD0021016041608160C160016180
:100A000041618161C161016241628162704721B1CE
:100A1000026842F00102026004E002684FF6FE73D1
:100A20001A40026070471AB103680B43036002E08A
:100A300003688B4303607047416070470146486814
:100A400080B2704701460020002201F080531BB1A4
:100A50001C4B083B1A6802E0194B083B1A6802EA73
:100A600001030BB1012000E00020704700F080512D
:100A700019B11449091F086002E01149083948609A
:100A8000704701460020002201F080531BB10D4B3E
:100A9000083B1A6802E00A4B083B1A6802EA0103A5
:100AA0000BB1012000E00020704700F0805119B127
:100AB0000449091F086002E001490839486070478D
:100AC000080002400804024010B50446CC488442A5
:100AD00008D10121042000F02DFB0021042000F0AA
:100AE00029FB46E0C748844208D10121082000F0D4
:100AF00021FB0021082000F01DFB3AE0C24884429F
:100B000008D10121102000F015FB0021102000F079
:100B100011FB2EE0BD48844208D10121202000F0C5
:100B200009FB0021202000F005FB22E0B8488442A8
:100B300008D10121402000F0FDFA0021402000F002
:100B4000F9FA16E0B348844208D10121802000F070
:100B5000F1FA0021802000F0EDFA0AE0AE4884426C
:100B600007D10121801500F0E5FA0021A01500F061
:100B7000E1FA10BD10B50121084600F0DBFA0021B2
:100B8000012000F0D7FA10BD2DE9F0410246002502
:100B90000026002000230024002791F803C00CF059
:100BA0000F0591F803C00CF0100CBCF1000F03D03E
:100BB00091F802C04CEA050591F800C0BCF1000FA5
:100BC00031D0146800202BE04FF0010C0CFA00F338
:100BD000B1F800C00CEA03069E4220D183004FF01A
:100BE0000F0C0CFA03F7BC4305FA03FC4CEA0404AF
:100BF00091F803C0BCF1280F06D14FF0010C0CFA9C
:100C000000FCC2F814C00AE091F803C0BCF1480F20
:100C100005D14FF0010C0CFA00FCC2F810C0401CCA
:100C20000828D1D31460B1F800C0BCF1FF0F34DD47
:100C3000546800202EE000F1080C4FF0010808FA7B
:100C40000CF3B1F800C00CEA03069E4221D18300E8
:100C50004FF00F0C0CFA03F7BC4305FA03FC4CEA07
:100C6000040491F803C0BCF1280F05D100F1080C71
:100C700008FA0CF8C2F8148091F803C0BCF1480FD0
:100C800007D100F1080C4FF0010808FA0CF8C2F87F
:100C90001080401C0828CED35460BDE8F0814FF688
:100CA000FF710180022181700421C17070470246EA
:100CB000002093680B400BB1012000E0002070473A
:100CC0000146886880B2704702460020D3680B4016
:100CD0000BB1012000E0002070470146C86880B2D7
:100CE000704701617047416170470AB1016100E0DE
:100CF00041617047C16070474FF480320A4382619E
:100D00008161826182698269704702460020434B9B
:100D100018684FF68073184040EA021008433F4BB2
:100D2000186070473E49C8617047F0B50A46002315
:100D300000240021002500F00046B6F1004F02D14A
:100D4000364EF16901E0354E7168C0F3034583B258
:100D500000F44016B6F5401F08D121F070612F4E07
:100D6000766826F070662D4F7E6012E000F48016E3
:100D7000B6F5801F06D1032606FA05F4A14341F01B
:100D8000706106E0460D360103FA06F6B14341F004
:100D9000706122B1460D360103FA06F6314300F0C8
:100DA0000046B6F1004F02D11C4EF16101E01B4E2E
:100DB0007160F0BD30B500228B071C0F0F2303FAC2
:100DC00004F2164B08338C1053F824309343134C21
:100DD00008348D1044F8253023468C1053F8243005
:100DE0008C07240F00FA04F423430C4C08348D10B4
:100DF00044F8253030BD0A49DC31086070470000F6
:100E000000080140000C01400010014000140140A6
:100E100000180140001C014000200140000001407A
:100E200000002042DF48006840F00100DD49086012
:100E300008464068DC490840DA49486008460068CE
:100E4000DA490840D74908600846006820F4802045
:100E500008600846406820F4FE0048604FF41F0018
:100E600088607047CF49096821F48031CD4A11600C
:100E70001146096821F480211160B0F5803F03D04C
:100E8000B0F5802F0ED106E0C649096841F48031E3
:100E9000C44A116007E0C349096841F4A021C14A6E
:100EA000116000E000BF00BF704710B5014600228E
:100EB000002300204A11012A02D1BA4C236806E01F
:100EC000022A02D1B74C236A01E0B64C636A01F0F2
:100ED0001F02012494401C400CB1012000E00020BE
:100EE00010BD38B5002000900024002500BF31203F
:100EF000FFF7DBFF05460098401C00900098B0F516
:100F0000A06F01D0002DF2D03120FFF7CEFF08B145
:100F1000012400E00024204638BD01460020A14AFB
:100F2000106820F0F80040EAC10010607047A04946
:100F300008607047024600209A4B586820F47C10E5
:100F400042EA01031843974B586070479849086676
:100F5000704701460020934A506820F00300084380
:100F6000506070478F48406800F00C0070470146A1
:100F700000208C4A506820F0F00008435060704711
:100F800001460020874A506820F4E0600843506022
:100F9000704701460020834A506820F4605040EAC0
:100FA000C1005060704729B17E4A527A02437D4B9E
:100FB0005A7204E07B4A527A82437A4B5A727047E3
:100FC0007B49D8310860704701460020754A506857
:100FD00020F440400843506070470021714A20329D
:100FE0001170704A82F82010012802D004280AD11A
:100FF00004E001216B4A2032117005E00521694AA5
:101000002032117000E000BF00BF704769490860DE
:1010100070476449096A0143624A11627047654931
:1010200044390860704730B50021002200240023B5
:101030005C4D6D6805F00C0121B1042905D008292B
:1010400023D105E05C4D056022E05B4D05601FE0AB
:10105000544D6D6805F47012524D6D6805F480347E
:10106000022505EB92421CB9544D554305600BE037
:101070004C4D6D6805F400351DB1504D554305606C
:1010800002E04D4D5543056002E04B4D056000BF49
:1010900000BF444D6D6805F0F0010909484D6B5CD7
:1010A0000568DD4045603F4D6D6805F4E061090A63
:1010B000434D6B5C4568DD4085603A4D6D6805F4D5
:1010C0006051C90A3E4D6B5C4568DD40C560354DD9
:1010D0006D6805F44041890B3A4D6B5CC568B5FB02
:1010E000F3F5056130BD29B12E4A526902432D4BFB
:1010F0005A6104E02B4A526982432A4B5A61704775
:1011000029B1284A92690243264B9A6104E0254A94
:1011100092698243234B9A61704729B1214AD2696F
:101120000243204BDA6104E01E4AD26982431D4B20
:10113000DA61704729B11B4AD2680243194BDA6061
:1011400004E0184AD2688243164BDA60704729B12E
:10115000144A12690243134B1A6104E0114A1269DE
:101160008243104B1A61704712494039086070473A
:101170000F49C86470470B49C87170470948406AF5
:1011800040F0807007494862704701460020054AD8
:1011900092680A400AB1012000E00020704701492E
:1011A00088727047001002400000FFF8FFFFF6FE53
:1011B000000042428004424200127A0000093D00D1
:1011C000140000202400002010B50446FE4884428C
:1011D00008D10121C014FFF7ADFF0021E014FFF793
:1011E000A9FFC4E0B4F1804F08D101210846FFF700
:1011F000AEFF00210120FFF7AAFFB8E0F3488442C8
:1012000008D101210220FFF7A2FF00210220FFF7F1
:101210009EFFACE0EE48844208D101210420FFF794
:1012200096FF00210420FFF792FFA0E0E9488442E6
:1012300008D101210820FFF78AFF00210820FFF7CD
:1012400086FF94E0E448844208D101211020FFF792
:101250007EFF00211020FFF77AFF88E0DF488442FC
:1012600008D101212020FFF772FF00212020FFF785
:101270006EFF7CE0DA48844208D101214014FFF778
:1012800059FF00216014FFF755FF70E0D5488442F4
:1012900009D10121C804FFF74DFF00214FF40020C0
:1012A000FFF748FF63E0D048844209D101210805D7
:1012B000FFF740FF00214FF48010FFF73BFF56E09F
:1012C000CA48844209D101214805FFF733FF0021B4
:1012D0004FF40010FFF72EFF49E0C548844208D1C3
:1012E00001214020FFF733FF00214020FFF72FFFAF
:1012F0003DE0C048844208D101218020FFF727FF4C
:1013000000218020FFF723FF31E0BB48844208D151
:1013100001218015FFF71BFF0021A015FFF717FF24
:1013200025E0B648844209D101210804FFF702FFF5
:1013300000214FF48030FFF7FDFE18E0B0488442F2
:1013400009D101214804FFF7F5FE00214FF40030D8
:10135000FFF7F0FE0BE0AB48844208D1012188047E
:10136000FFF7E8FE00214FF48020FFF7E3FE10BDF9
:1013700000220288944B98420ED0994B98420BD091
:10138000B0F1804F08D0914B984205D0904B9842D5
:1013900002D0904B984204D14FF68F731A404B887D
:1013A0001A438D4B984207D08C4B984204D04FF68D
:1013B000FF431A40CB881A4302808B8883850B88B1
:1013C0000385814B98420BD0854B984208D08B4BBC
:1013D000984205D08A4B984202D08A4B984201D15C
:1013E0000B7A038601238382704770B500240022A4
:1013F0000023058C4FF6FE7635400584028C8388E9
:10140000048B4FF68F752C40B51E2C400D882C4355
:10141000751E2A400D892A434D882A436A4DA842E9
:101420000BD06F4DA84208D0744DA84205D0744D22
:10143000A84202D0734DA84213D14FF6F7752A4047
:101440004D892A434FF6FB752A408D882A434FF673
:10145000FF652B404FF6FF552B408D892B43CD89DF
:101460002B4383800483CD888586028470BD70B54C
:10147000002400220023058C4FF6EF7635400584CA
:10148000028C8388048B48F6FF752C404FF6FF458D
:101490002C400D884FF6FF7606EA05252C434FF6C3
:1014A000DF752A400D8906EA05152A434D8806EAAC
:1014B00005152A43444DA84202D0494DA8421DD1EA
:1014C0004FF67F752A404D894FF6FF7606EA0515DF
:1014D0002A434FF6BF752A408D8806EA05152A4330
:1014E0004FF6FF352B404FF2FF752B408D8906EAF2
:1014F00085052B43CD8906EA85052B43838004832C
:10150000CD880587028470BD70B5002400220023B9
:10151000058C4FF6FF6635400584028C8388848BEA
:101520004FF68F752C404FF6FC752C400D882C43E0
:101530004FF6FF552A400D894FF6FF7606EA05253E
:101540002A434D8806EA05252A431F4DA84202D0AA
:10155000234DA8421DD14FF2FF752A404D894FF609
:10156000FF7606EA05252A434FF6FF352A408D8887
:1015700006EA05252A434EF6FF752B404DF6FF750A
:101580002B408D8906EA05152B43CD8906EA051502
:101590002B4383808483CD888587028470BD70B59A
:1015A000002200230024058C4EF6FF76354005848A
:1015B000038C8488828B48F6FF752A404FF6FF45DE
:1015C0002A400D8820E00000002C0140000400406B
:1015D00000080040000C00400010004000140040D3
:1015E00000340140004C01400050014000540140D3
:1015F00000180040001C0040002000400040014056
:1016000000440140004801404FF6FF7606EA0525F8
:101610002A434DF6FF752B400D8906EA05352B430D
:101620004D8806EA05352B43FA4DA84202D0FA4D03
:10163000A84208D14BF6FF752C408D894FF6FF76F6
:1016400006EA85152C4384808283CD88A0F840501B
:10165000038470BD828B4FF2FF331A408283828BEA
:101660004FF6FF7303EA01231A4382837047F0B5F4
:101670000C461546002200210026078C4EF6FF7C02
:1016800007EA0C070784828B018C4FF6FF7707EA85
:10169000043640F6FF473A404FF6FF7707EA052742
:1016A0003A434FF6FF7707EA03373A43D94FB84238
:1016B0000ED0D94FB8420BD0B0F1804F08D0D74FE1
:1016C000B84205D0D64FB84202D0D64FB84206D164
:1016D0004DF6FF77394046F48057394305E047F629
:1016E000FF57394044F48057394382830184F0BD69
:1016F000828B4FF6F3731A408283828B0A43828374
:101700007047F0B50C461546002200210026078CD4
:101710004FF6FF6C07EA0C070784828B018C4FF6AB
:10172000FF7707EA04264FF60C773A404FF6FF772B
:1017300007EA03172F433A43B64FB8420ED0B64FCD
:10174000B8420BD0B0F1804F08D0B44FB84205D0AA
:10175000B34FB84202D0B34FB84206D14FF6FF574D
:10176000394046F48077394305E04FF2FF5739405E
:1017700044F48077394382830184F0BD028B4FF2B9
:10178000FF331A400283028B4FF6FF7303EA0123F3
:101790001A4302837047F0B50C461546002200211B
:1017A0000026078C4FF6EF7C07EA0C070784028BB4
:1017B000018C4FF6FF7707EA041640F6FF473A40E0
:1017C0004FF6FF7707EA03373A434FF6FF7707EA0A
:1017D00005273A438F4FB8420ED08F4FB8420BD0F7
:1017E000B0F1804F08D08D4FB84205D08C4FB84231
:1017F00002D08C4FB84206D14FF6DF77394046F021
:101800001007394305E04FF65F77394044F0100781
:10181000394302830184F0BD028B4FF6F3731A4003
:101820000283028B0A4302837047F0B50C461546CB
:1018300000220021068C4FF6FE773E400684028B84
:10184000018C4FF60C7632407E1C06EA03162E43BE
:101850003243704EB0420ED06F4EB0420BD0B0F15A
:10186000804F08D06D4EB04205D06D4EB04202D0D0
:101870006C4EB04206D14FF6FD76314044F0010681
:10188000314305E04FF6F576314044F0010631432F
:1018900002830184F0BD70B505460C465D48854263
:1018A0000ED05D4885420BD0B5F1804F08D05B4823
:1018B000854205D05A48854202D05A48854200D117
:1018C00000E000BF208850B92389A288618828469B
:1018D000FFF7ABFFE1882846FFF79EFF25E0208851
:1018E00004280AD12389A28861882846FFF753FF7C
:1018F000E1882846FFF742FF17E0208808280AD130
:101900002389A28861882846FFF7FBFEE1882846E4
:10191000FFF7EEFE09E02389A28861882846FFF7D9
:10192000A6FEE1882846FFF795FE70BD2DE9F0413F
:1019300005460C4600260127608808B9022600E00B
:101940000026A088012801D1022700E00127208875
:10195000A0B92389A28861882846FFF766FFE1883D
:101960002846FFF759FF23893A4631462846FFF7B4
:1019700012FFE1882846FFF701FF13E02389A288C0
:1019800061882846FFF707FFE1882846FFF7F6FE43
:1019900023893A4631462846FFF747FFE188284623
:1019A000FFF73AFFBDE8F0810A884B881A438B881D
:1019B0001A43CB881A430B891A434B891A438B89E4
:1019C0001A43A0F8442070474FF6FF718180002130
:1019D0000180C180418001727047002101804180F7
:1019E0008180C180018141818181C1817047002155
:1019F00001804180012181800021C18001817047E7
:101A00000021018041808180C180018141818181EB
:101A100070470000002C01400034014000040040E9
:101A200000080040000C004021B1028842F0010291
:101A3000028004E002884FF6FE731A40028070476D
:101A400031B1B0F8442042F40042A0F8442005E04F
:101A5000B0F84420C2F30E02A0F8442070471AB137
:101A600083890B43838102E083898B4383817047A1
:101A70008182704741EA0203A0F8483070471AB1EA
:101A800083890B43838102E083898B438381704781
:101A900001894FF6F8721140018170470A46002112
:101AA00001894FF68F73194011430181704730B59A
:101AB00004460D4629462046FFF7F0FF208940F0F6
:101AC0000700208130BD2DE9F04104460D46164641
:101AD0001F46602D06D13B46012231462046FFF7C6
:101AE0005AFE05E03B46012231462046FFF79DFEA7
:101AF00029462046FFF7D2FF208940F007002081C9
:101B0000BDE8F08130B50C4600210189C9B24FF61D
:101B1000FF7505EA0325154325432943018130BD9F
:101B20002DE9F04105460E461746984600244346E7
:101B30003A4631462846FFF7E5FF2C894FF6F87004
:101B4000044044F007044FF68F70044044F07004E2
:101B50002C81BDE8F081F0B504460D4616461F46BF
:101B60003B46324629462046FFF7CCFF208940F409
:101B700080402081F0BD0185828270470A460021A5
:101B800001884FF68F731940114301807047F0B5FB
:101B90000C4615461E460021002200230189028BB7
:101BA000038C4FF6F877394021434FF6FC473A4013
:101BB00040F201173A434FF6DD773B404FF6FF778F
:101BC00007EA06172F433B43018102830384F0BDDC
:101BD0000A460021018B4FF68F7319401143018390
:101BE00070470A460021018B48F6FF7319404FF6F3
:101BF000FF7303EA02231943018370470A46002159
:101C0000818B4FF68F7319401143818370470A46C9
:101C10000021818B48F6FF7319404FF6FF7303EAEA
:101C2000022319438183704721B1028842F0800268
:101C3000028004E002884FF67F731A4002807047EA
:101C400021B1828842F00402828004E082884FF64B
:101C5000FB731A408280704721B1828842F00802EB
:101C6000828004E082884FF6F7731A4082807047C2
:101C700021B1828842F00102828004E082884FF61E
:101C8000FE731A40828070470A460021018B4FF68E
:101C9000F77319401143018370470A460021018BF5
:101CA0004FF2FF7319404FF6FF7303EA0223194303
:101CB000018370470A460021818B4FF6F773194064
:101CC0001143818370470A460021818B4FF2FF73D5
:101CD00019404FF6FF7303EA0223194381837047CB
:101CE0000A460021018B4FF6FB7319401143018313
:101CF00070470A460021018B4FF6FF3319404FF61B
:101D0000FF7303EA02231943018370470A46002147
:101D1000818B4FF6FB7319401143818370470A464C
:101D20000021818B4FF6FF3319404FF6FF7303EA12
:101D300002231943818370470A460021018B4FF625
:101D40007F7319401143018370470A460021018BBC
:101D5000C1F30E014FF6FF7303EA02231943018317
:101D600070470A460021818B4FF67F73194011435B
:101D7000818370470A460021818BC1F30E014FF623
:101D8000FF7303EA02231943818370470A46002147
:101D9000018C4FF6FD7319401143018470470A46C8
:101DA0000021018C4FF6F7731940114301847047ED
:101DB0000A460021018C4FF6DF7319404FF6FF737E
:101DC00003EA02131943018470470A460021018C7B
:101DD0004FF67F7319404FF6FF7303EA021319435E
:101DE000018470470A460021018C4FF6FF531940C9
:101DF0004FF6FF7303EA02231943018470470A4632
:101E00000021018C4FF2FF7319404FF6FF7303EA74
:101E100002231943018470470A460021018C4DF6C4
:101E2000FF7319404FF6FF7303EA0233194301842D
:101E3000704730B5002301248C40A3B2048C9C432E
:101E40000484048C02FA01F5ADB22C43048430BD45
:101E500030B5002304248C40A3B2048C9C4304843A
:101E6000048C02FA01F5ADB22C43048430BD70B588
:101E70000346002000241846183001258D40ACB2DE
:101E80001D8CA5431D8409B1082909D100EB61000F
:101E9000056825F0700505600568154305600EE0CE
:101EA0000D1FC5F34E052844056825F4E04505607F
:101EB00005684FF6FF7606EA02263543056070BDD9
:101EC00021B1028842F00202028004E002884FF64B
:101ED000FD731A400280704721B1028842F004026B
:101EE000028004E002884FF6FB731A4002807047BC
:101EF00021B1828842F08002828004E082884FF61D
:101F00007F731A408280704702884FF6F7731A4039
:101F1000028002880A430280704782884FF68F73DE
:101F20001A40828082880A438280704702894FF675
:101F3000F8731A40028102890A43028170470289BC
:101F40004FF67F731A40028102890A43028170476B
:101F5000818470478185704781867047018770470B
:101F600081877047A0F84010704702884FF6FF4302
:101F70001A40028002880A43028070470146888E18
:101F800070470146088F70470146888F70470146A9
:101F9000B1F8400070470146888C70470146088DB3
:101FA000704702460020138A0B400BB1012000E06D
:101FB00000207047CA430282704730B502460020B5
:101FC00000230024158A05EA0103958905EA010426
:101FD00013B10CB1012000E0002030BDCA430282E1
:101FE0007047000010B50446FB48844209D1012126
:101FF0008803FFF79FF800214FF48040FFF79AF81D
:1020000032E0F648844209D101214804FFF79FF8E5
:1020100000214FF40030FFF79AF825E0F0488442A1
:1020200009D101218804FFF792F800214FF48020A4
:10203000FFF78DF818E0EB48844209D10121C8046C
:10204000FFF785F800214FF40020FFF780F80BE040
:10205000E548844208D101210805FFF778F80021FE
:102060004FF48010FFF773F810BD2DE9F04786B0EC
:1020700005460E460024A24600BFA1460027B089AF
:1020800000B100BF2F462C8A4CF6FF700440F08848
:1020900004432C82AC894EF6F3100440B088318999
:1020A0000843718908430443AC81AC8A4FF6FF4072
:1020B0000440B0890443AC8201A8FEF7B4FFC648CF
:1020C000874202D1DDF810A001E0DDF80CA0A8895C
:1020D00000F4004040B10AEBCA0000EB0A1031687E
:1020E0004900B0FBF1F807E00AEBCA0000EB0A1068
:1020F00031688900B0FBF1F86420B8FBF0F004010E
:102100002009642101FB1089A88900F4004040B136
:10211000322000EBC900B0FBF1F000F007000443EF
:1021200008E0322000EB09106421B0FBF1F000F070
:102130000F0004432C8106B0BDE8F0874FF4165120
:10214000016000218180C18001810C214181002139
:102150008181704710B502460020108A4FF2FF03BC
:1021600018400B884C8823438C882343CC88234316
:102170001843108210BD0021018041808180C18000
:10218000704721B1828942F40052828104E0828941
:102190004DF6FF731A4082817047F0B50346002464
:1021A00000260025002040F66A17B94200D100BF82
:1021B0001846C1F3421401F01F06012707FA06F57D
:1021C000012C01D10C3004E0022C01D1103000E0D0
:1021D00014301AB107682F43076002E00768AF4365
:1021E0000760F0BD1AB1838A0B43838202E0838AC1
:1021F0008B4383827047028A4FF6F0731A40028243
:10220000028A0A430282704782894FF2FF731A40A2
:10221000828182890A438281704721B1828942F09A
:102220000202828104E082894FF6FD731A408281A6
:102230007047028A4FF6DF731A400282028A0A430D
:102240000282704721B1028A42F48042028204E095
:10225000028A4BF6FF731A4002827047C1F30802EC
:102260008280704701468888C0F3080070478189E2
:1022700041F0010181817047028BD2B20283028B4F
:1022800042EA012202837047028B02F47F420283FA
:10229000028B0A430283704721B1828A42F02002F6
:1022A000828204E0828A4FF6DF731A40828270478E
:1022B00021B1828A42F01002828204E0828A4FF6C3
:1022C000EF731A408282704721B1828A42F008027D
:1022D000828204E0828A4FF6F7731A408282704746
:1022E00021B1828942F40042828103E08289C2F3F3
:1022F0000E028281704721B1828A42F4006282829A
:1023000004E0828A4FF2FF731A4082827047828A09
:102310004FF6FB731A408282828A0A438282704798
:1023200021B1828A42F00202828204E0828A4FF660
:10233000FD731A408282704702460020B1F5007F8B
:1023400000D100BF13880B400BB1012000E000203A
:10235000704701F40072B2F5007F00D100BFCA439C
:102360000280704770B5024600240023002500203B
:1023700040F66A16B14200D100BFC1F3421501F028
:102380001F03012606FA03F3012D02D1968933407B
:1023900006E0022D02D1168A334001E0968A3340CE
:1023A0000C12012606FA04F41688344013B10CB15D
:1023B000012000E0002070BD10B50022002340F68F
:1023C0006A14A14200D100BF0A1201249440A3B2B2
:1023D000DC43048010BD0000003801400044004090
:1023E00000480040004C00400050004000F09CFCC1
:1023F00000F0EFFC01F032FA00F05EFD472140F200
:10240000CF7000F034FE00F061FD00F0E7FF01F056
:102410001EF801F078F8012280212B48FFF7E2FE38
:1024200051E02A48007811284CD2DFE800F0090A70
:102430004B4647481E324B4B4B4B4B4B4B494A008C
:1024400040E0234800780A280ED1224A2248016839
:102450002248006801F070FB1E4801F041FB01F0CA
:10246000E4F800201A4908702CE0194800780A287E
:102470000ED1184A184801681848006801F05CFB42
:10248000144801F02DFB01F0D0F80020104908702D
:1024900018E00F4800780A280ED10E4A0E4801684D
:1024A0000E48006801F048FB0A4801F019FB01F0F2
:1024B000BCF800200649087004E003E002E001E0F7
:1024C00000E000BF00BFACE7003801402C00002056
:1024D00066000020740000203C0000204000002026
:1024E000704700BFFEE700BFFEE700BFFEE700BF8A
:1024F000FEE7704770477047704710B540F22551AE
:10250000F748FFF72FFF00287ED0F548FFF7AAFE17
:10251000C4B2F4480078002877D00020F149087050
:10252000A4F130000A2871D2DFE800F0053A81C436
:10253000FDFCFBFAF9F8EC48006840F08000EA493D
:1025400008600846006840F480700860E74800684A
:1025500040F40040E54908600846006840F48040C7
:102560000860E348406940F00200E14948610846DC
:10257000406940F0010048610020DE4908700021F8
:102580000220FEF7CAFD0020DB490870302001F070
:1025900070F8142000F0D7FC0020D84908700EE233
:1025A000D148006840F08000CF49086008460068C4
:1025B00040F480700860CD48006840F40040CB498A
:1025C00008600846006840F480400860C8484069D8
:1025D00040F00200C64948610846406940F00100E9
:1025E00048610120C34908700020C34908703120A8
:1025F00001F03FF8142000F0A6FC01210220FEF7B4
:102600008CFD0020BE4902E003E2D9E1D6E108805A
:10261000B648001F006840F40040B449091F086034
:10262000B148006840F08000AF490860C7E1AE489B
:10263000006840F08000AC4908600846006840F43B
:1026400080700860A948006840F40040A74908600D
:102650000846006840F480400860A548406940F0A2
:102660000200A34948610846406940F00100486102
:102670000620A049087000209F490870322000F011
:10268000F8FF142000F05FFC01210220FEF745FD59
:1026900000209B4908809548001F006840F40040D6
:1026A0009249091F08609048006840F080008E49F8
:1026B000086084E18C48006840F080008A49086026
:1026C0000846006840F4807008608848006840F45C
:1026D0000040864908600846006840F48040086071
:1026E0008348406940F002008149486108464069DA
:1026F00040F00100486107207E49087000207E49B3
:102700000870332000F0B5FF142000F01CFC0121FC
:102710000220FEF702FD0020794905E020E1F1E00A
:10272000AFE07AE045E00FE008807048001F0068E5
:1027300040F400406D49091F08606B48006840F094
:102740008000694908603AE16748006840F080000D
:10275000654908600846006840F480700860634876
:10276000006840F40040614908600846006840F491
:10277000804008605E48406940F002005C49486162
:102780000846406940F0010048610320594908703B
:1027900000210220FEF7C1FC0020574908703420B8
:1027A00000F067FF142000F0CEFB002053490870B2
:1027B00005E14D48006840F080004B49086008463C
:1027C000006840F4807008604848006840F40040A9
:1027D000464908600846006840F480400860444864
:1027E000406940F00200424948610846406940F0B3
:1027F0000100486104203F49087000210220FEF7D3
:102800008CFC352000F035FF142000F09CFB0020EC
:102810003949087039490870D1E03348006840F000
:102820008000314908600846006840F48070086004
:102830002E48006840F400402C49086008460068B3
:1028400040F4804008602A48406940F0020028496E
:1028500048610846406940F001004861052025496B
:10286000087000210220FEF758FC362000F001FF1E
:10287000142000F068FB00201F4908701F490870F1
:102880009DE01948006840F080001749086008463C
:10289000006840F4807008601448006840F400400C
:1028A000124908600846006840F4804008601048FB
:1028B000406940F002000E4948610846406940F016
:1028C000010048610F200B490870372000F0D1FE4D
:1028D000142000F038FB0020084908706FE0000069
:1028E000003801403100002014180140141C014040
:1028F000002001402C00002066000020680000201D
:102900006A000020F748006840F08000F549086040
:102910000846006840F480700860F348006840F49E
:102920000040F14908600846006840F480400860B3
:10293000EE48406940F00200EC49486108464069B1
:1029400040F0010048611020E9490870382000F08B
:1029500090FE142000F0F7FA0020E64908702EE0FF
:10296000E048006840F08000DE49086008460068E2
:1029700040F480700860DC48006840F40040DA49A8
:1029800008600846006840F480400860D748406905
:1029900040F00200D54948610846406940F0010016
:1029A00048611120D2490870392000F062FE1420DD
:1029B00000F0C9FA0020CF49087000E000BF28E00D
:1029C000CD480078B8B10020CB490870CB490880C9
:1029D000A4F13000CA490870C348001F006840F4E1
:1029E0000040C149091F0860BE48006840F08000EF
:1029F000BC4908600DE0662C05D06D2C07D1012084
:102A0000C049087004E00120BB49087000E000BF25
:102A100000BF10BD10B540F22551BB48FFF7A2FC26
:102A200000287DD0B848FFF71DFCC4B2B748007835
:102A3000012876D1B6480078022853D1E01E0B2831
:102A40004ED2DFE800F0060F181B2427323B444724
:102A50004A0000F019FEA548406940F00100A34972
:102A600048613EE000F036FEA048006940F00100F9
:102A70009E49086135E000F041FE32E000F052FE70
:102A80009A48006940F001009849086129E000F087
:102A90005DFE26E000F01EFE00F044FE9348006953
:102AA00040F00100914908611BE000F063FE8F488F
:102AB000406940F001008D49486112E000F06EFE6F
:102AC0008A48406940F001008849486109E000F007
:102AD00051FE06E000F04EFE03E000F04BFE00E089
:102AE00000BF00BF8A480078012828D180480078BC
:102AF000012807D07E480078062803D07C4800785B
:102B000006281CD16C2C0AD17748001F006840F4BD
:102B100080407549091F086001207649087001E06E
:102B2000DEE011E0722C0AD16E48001F006840F40C
:102B300080706C49091F086001206E4908700020F0
:102B4000724908707249087070480078022879D17B
:102B50006F480078022855D104F0800038B9302140
:102B60006C480078C0EB001008306B4A115404F038
:102B70008000802809D104F07F042D216548007869
:102B8000C0EB00100830644A11546006040E642043
:102B900094FBF0F03030C1B25E480078C0EB00101A
:102BA00009305D4A1154642094FBF0F100FB1140A0
:102BB0000A2190FBF1F03030C1B256480078C0EBEA
:102BC00000100A3011540A2094FBF0F100FB114070
:102BD0003030C1B24F480078C0EB00100B301154B8
:102BE0004C480078401C4B4908700846007809287A
:102BF00008D100F02CFD00204649087043490870B8
:102C00004349087042480078012834D1434800788D
:102C1000012818D10A2094FBF0F03030404981F8A7
:102C200045000A2094FBF0F100FB114030303C4994
:102C300081F8460000203949087034490870344949
:102C4000087010BD17E035480078A0B90A2094FB41
:102C5000F0F03030324981F842000A2094FBF0F164
:102C600000FB114030302E4981F843002B4800789A
:102C7000401C2A4908702B480078022811D10020F6
:102C800028490870012C03D101202049087008E070
:102C9000022C03D102201D49087002E000201B49CC
:102CA000087020480078012815D11E480078401C83
:102CB0001C490870312C03D10120154908700AE025
:102CC000322C03D102201249087004E0002015497B
:102CD00008700F490870732C02D101201149087047
:102CE00000BFAEE714180140141C01400020014051
:102CF0002C00002068000020320000206A00002024
:102D00006C00002031000020004800403500002009
:102D10003400002036000020BF00002037000020D3
:102D2000740000203300002008B501214FF4E0704A
:102D3000FEF7E6F94FF44040ADF8000010208DF8A2
:102D4000030003208DF8020069463148FDF71CFF9F
:102D50000320ADF8000010208DF8030003208DF84B
:102D6000020069462B48FDF70FFF4FF4C070ADF825
:102D7000000010208DF8030003208DF80200694642
:102D80002548FDF701FF24481430006840F080001A
:102D90002149143108600846006840F480700860DA
:102DA0001B481430006840F4004019491431086091
:102DB0000846006840F4804008601648406940F0CA
:102DC0000200144948610846406940F0010048612A
:102DD00008BD08B501210802FEF792F94FF44060E2
:102DE000ADF8000010208DF8030003208DF80200DC
:102DF00069460848FDF7C8FE0648406940F480600F
:102E0000044948610846006940F40060086108BD53
:102E1000001C0140002001400018014008B50121BC
:102E20000420FEF76DF90120ADF8000000208DF8B8
:102E3000030069462348FDF7A7FE08BD00B585B02D
:102E400001218802FEF75CF94FF40040FEF7BCF860
:102E5000002000908DF804008DF805004FF400204C
:102E600002900020039001208DF81000694616485A
:102E7000FDF7FFFA01211448FDF7EFFB07230122BC
:102E800000211148FDF78DFB01210F48FDF71DFBC7
:102E90000D48FDF73CFB00BF0B48FDF73DFB00284C
:102EA000FAD10948FDF742FB00BF0748FDF743FB95
:102EB0000028FAD105B000BD10B5FFF7AFFFFFF74E
:102EC000BDFF10BD000801400028014010B56FF0A3
:102ED0000400FDF788FA2E4800682E49B0FBF1F097
:102EE0002D4908700846007800EB4001C1EBC01086
:102EF0004FF6FF7101EAC0002849088010BD014665
:102F0000254A12784A434FF0E0235A6100229A6121
:102F10001A46126942F001021A6100BF4FF0E02226
:102F2000106900F001021AB100F48032002AF5D0D5
:102F30004FF0E022126922F001024FF0E0231A6103
:102F400000229A6170470146144A12884A434FF0A2
:102F5000E0235A6100229A611A46126942F0010286
:102F60001A6100BF4FF0E022106900F001021AB1AF
:102F700000F48032002AF5D04FF0E022126922F0EE
:102F800001024FF0E0231A6100229A6170477047F6
:102F90000000002000127A00380000203A000020D3
:102FA00030B5F14800684FF47A72B0FBF2F1B1F13C
:102FB000807F01D301201DE021F07F40401E4FF0B3
:102FC000E022506150170F22002807DA13071D0E68
:102FD000E64B00F00F04241F1D5503E013071C0EE1
:102FE000E34B1C5400BF00204FF0E022906107200B
:102FF0001061002008B100BFFEE74FF0E02000693B
:1030000020F001004FF0E021086130BD0EB5012134
:103010000420FEF782F84FF6FF70ADF80400472059
:10302000ADF800000020ADF80600ADF802006946DA
:10303000D048FEF79DF90121CE48FEF7F5FC0EBD04
:1030400070B50024CB4824300088CB4908600020AC
:10305000C84924310880C848006800F0DFFD0546F3
:10306000C64900F09DFD0446204670BD70477FB5FF
:1030700005460C4601210220FEF74FF8ADF8085036
:10308000ADF804400020ADF80A00ADF8060001A933
:10309000BB48FEF76DF92021B948FEF73EFF01213C
:1030A000B748FEF787FF01221146B548FEF7D7FC67
:1030B0000121B348FEF7B8FC4FF4E060FDF744F996
:1030C0001D208DF8000000208DF8010003208DF8F0
:1030D000020001208DF803006846FDF73AF900214F
:1030E0000220FEF71AF87FBD70B500260121A44822
:1030F000FEF763FF00287DD0A2480088401CA1494C
:103100000880A1480078C0F10A0000EBC00101EB83
:1031100000109C490988B1EB400F0ED1002099495D
:1031200008809A48006880F08000984908609848B4
:10313000006880F400409649086096480078D8B14D
:1031400095480078401C9449087008460078022889
:1031500012D18E480830006840F480708B490831E5
:1031600008608B480830006840F480408849083186
:1031700008600020874908708848FDF779FA8010B8
:103180008749086087480078401C8649087086484F
:103190000068801C844908600846008883490988C3
:1031A000401A85B27E48006881490968884212DA6F
:1031B00080480068052190FBF1F000EB4000A84238
:1031C00009DA774800687C490968884203DA74485C
:1031D0000068794908607248006875490968884242
:1031E0000BDD6F48006875490968884205DD6C4849
:1031F000006800E0B1E071490860FA2D61DD6848BF
:1032000000686B49096888425BDD6D4800780028DA
:1032100057D168480068052190FBF1F000EB4000B1
:10322000A8424EDA0120664908705F4800685F498D
:103230000968401A5F4908605B4800685B4908609C
:103240006048007868B100205E490870002406E0FC
:10325000584800685C4941F82400601CC4B2092C3D
:10326000F6DD5A48007830B1002058490870012036
:103270005449087070BD00240CE05349601C51F89B
:10328000200041F82400084630F82400304486B27B
:10329000601CC4B2082CF0DD464800684A49486208
:1032A0000846808C304486B20A2096FBF0F086B245
:1032B0004EF6602090FBF6F0454908600120454934
:1032C0000870374800683A49096888422EDA3C4855
:1032D000007801282AD137480068052190FBF1F0D9
:1032E00000EB4000A84221DA3448006832490968FE
:1032F000401A64281ADD0020314908702F48006800
:103300002D490968401A34490860086800EBD071FB
:10331000294A126802EB6101254A116010460068D3
:10332000264908601046006823490860B5F5E16F3A
:1033300013DD4FF400701E490860204908601E49E3
:103340000860194800681949086001201F49087081
:1033500000201C4908701E49086001210848FEF73A
:103360003DFE00BF86E700000000002018ED00E0F1
:1033700000E400E000080040700000200024F44950
:10338000000400406A0000206C0000200C1801407E
:103390000C1C01406800002067000020002801404C
:1033A00040000020660000204C000020500000205B
:1033B0005C00002044000020580000205400002041
:1033C000480000206500002050010020640000201B
:1033D0003C000020490000206000002000B58BB0B8
:1033E00001210846FDF77FFEF6480090F64801905F
:1033F000102002904B200390002004908020059024
:1034000000200690079008904FF48050099000200B
:103410000A906946ED48FDF7CFFA0121EB48FDF728
:10342000F6FA0BB000BD08B54FF4E060FCF78CFF76
:1034300025208DF8000000208DF8010001208DF876
:1034400002008DF803006846FCF783FF08BD00B555
:1034500085B001218803FDF753FE01210420FDF70B
:103460004FFE4FF40070ADF8100018208DF81300D7
:1034700003208DF8120004A9D548FDF785FB4FF411
:103480008060ADF8100004208DF8130004A9D04826
:10349000FDF77AFB4FF4E13000900020ADF8040016
:1034A000ADF80600ADF80800ADF80C000C20ADF842
:1034B0000A006946C348001FFEF7D7FDFFF7B3FFB8
:1034C000012240F22551BF48001FFEF766FE012190
:1034D000BC48001FFEF755FE05B000BD08B54FF40F
:1034E000E060FCF731FF27208DF8000000208DF808
:1034F000010002208DF8020001208DF803006846CB
:10350000FCF727FF08BD00B585B001218804FDF751
:1035100004FE01210920FDF7F3FD4FF48060ADF8B2
:10352000100018208DF8130003208DF8120004A954
:10353000A848FDF729FB4FF40060ADF81000042007
:103540008DF8130004A9A348FDF71EFB4FF4E130EA
:1035500000900020ADF80400ADF80600ADF80800BA
:10356000ADF80C000C20ADF80A0069469A48FEF749
:103570007CFDFFF7B3FF012240F225519648FEF78C
:103580000CFE01219448FEF7FCFD05B000BD70B5AE
:1035900004460D46E1B28B48001FFEF75FFE00BFF8
:1035A00080218848001FFEF7C7FE0028F8D020467B
:1035B00070BD10B5044600BF20218248001FFEF7F1
:1035C000BBFE0028F8D07F48001FFEF74BFE10BD61
:1035D00070B504460D4629462046FEF73FFE00BF63
:1035E00080212046FEF7A8FE0028F9D070BD2DE905
:1035F000F04107460D461646002400BF295D3846B7
:10360000FFF7E6FF641CB442F8D3BDE8F08170B563
:1036100006460C46002500BF615D3046FFF7D8FF27
:103620006D1C605D0028F7D170BD68484438406C5F
:1036300020F00100654944394864634808654B201F
:1036400088640846406C40F00100486470475F4859
:103650004438406C20F001005C49443948645F48BC
:103660000865872088640846406C40F00100486483
:10367000704710B504466D215748FFF7A9FF214652
:103680005548FFF7A5FF10BD10B555A000F040FB51
:10369000FF214C48001FFFF79BFFFF214948001FF7
:1036A000FFF796FFFF214748001FFFF791FF4FA04C
:1036B00000F02EFBFF214348001FFFF789FFFF2189
:1036C0004048001FFFF784FFFF213E48001FFFF71F
:1036D0007FFF10BD10B548A000F01AFBFF2139484C
:1036E000001FFFF775FFFF213648001FFFF770FF2F
:1036F000FF213448001FFFF76BFF10BD10B53BA042
:1037000000F006FBFF212F48001FFFF761FFFF219C
:103710002C48001FFFF75CFFFF212A48001FFFF71E
:1037200057FF10BD10B537A000F0F2FAFF21254871
:10373000001FFFF74DFFFF212248001FFFF748FF42
:10374000FF212048001FFFF743FF10BD10B524A044
:1037500000F0DEFAFF211B48001FFFF739FFFF21B1
:103760001848001FFFF734FFFF211648001FFFF71E
:103770002FFF10BD10B526A000F0CAFAFF21114896
:10378000001FFFF725FFFF210E48001FFFF720FF56
:10379000FF210C48001FFFF71BFF10BD10B51FA035
:1037A00000F0B6FAFF210748001FFFF711FFFF21C5
:1037B0000448001FFFF70CFFFF210248001FFFF71E
:1037C00007FF10BD0438014074000020440002408F
:1037D00000080140000C014000480040BF000020EC
:1037E000636C69636B2074312C310000636C696316
:1037F0006B207431302C3100636C69636B20703244
:103800002C310000636C69636B2070312C31000037
:10381000636C69636B2074302C300000636C6963E7
:103820006B2074372C30000010B576210A48FFF762
:10383000CFFE10BD10B56E210748FFF7C9FE10BDC1
:1038400010B566210448FFF7C3FE10BD10B5642112
:103850000148FFF7BDFE10BD0048004008B501213A
:103860001020FDF74DFC4FF4C040ADF800001020D3
:103870008DF8030003208DF802006946C448FDF767
:1038800083F908BD01E0401E00BF0028FBD170474E
:1038900008B510208DF803008002ADF8000001206B
:1038A0008DF802006946BA48FDF76EF94FF4804181
:1038B000B748FDF716FA1420FFF7E4FF4FF4005164
:1038C000B348FDF70EFA1420FFF7DCFF4FF48041F8
:1038D000AF48FDF708FA1420FFF7D4FF4FF400516A
:1038E000AB48FDF700FA1420FFF7CCFF08BD08B580
:1038F00010208DF803008002ADF8000001208DF843
:1039000002006946A248FDF73FF94FF40051A04874
:10391000FDF7E9F91420FFF7B5FF4FF480419C480B
:10392000FDF7E1F91420FFF7ADFF4FF4005198487F
:10393000FDF7D7F91420FFF7A5FF4FF48041944815
:10394000FDF7CFF908BD38B5044610208DF8030007
:103950008002ADF8000001208DF8020069468C4815
:10396000FDF712F92CB14FF480418948FDF7B9F900
:1039700004E04FF480418648FDF7B5F90820FFF7D1
:1039800081FF4FF400518248FDF7ABF91420FFF797
:1039900079FF4FF400517E48FDF7A5F91420FFF799
:1039A00071FF4FF480417A48FDF79BF938BD38B577
:1039B00048208DF803004FF48040ADF8000001204E
:1039C0008DF8020069467248FDF7DEF81420FFF713
:1039D00059FF4FF400516E48FDF783F91420FFF7AB
:1039E00051FF4FF480416A48FDF761F9012801D188
:1039F000012400E000244FF400516548FDF773F9FD
:103A00001420FFF73FFF204638BD2DE9F041054661
:103A10000A2700BFA84600260FE008F0800018B172
:103A20000120FFF790FF02E00020FFF78CFF4FEA34
:103A300048604FEA1068701CC6B2082EEDDBFFF735
:103A4000B6FF0446012C06D1FFF751FF17B1781ECF
:103A5000C7B201E003E002E0FFF71AFFDAE7BDE8D2
:103A6000F08170B5064608250DE0FFF7A0FF20B1F4
:103A70006006040E44F0010403E06006040E04F046
:103A8000FE04681EC5B2002DEFD13046FFF75BFF84
:103A9000204670BD10B5FFF7FBFE0020FFF7B5FF15
:103AA0000720FFF7B2FFFFF7F3FE0120FFF7ADFF9E
:103AB0000020FFF7D6FF374908700020FFF7D1FF3D
:103AC000354908700120FFF7CCFF34490870FFF733
:103AD0000EFF314800782F49097801EB002010BD16
:103AE00070B50446FFF7D6FF46F6B321C1EB4000A0
:103AF00085B24FF47A7095FBF0F0303004F82E0F59
:103B0000642095FBF0F00A2190FBF1F201FB12001A
:103B1000303060700A2095FBF0F090FBF1F201FB71
:103B200012003030E0700A2095FBF0F100FB1150DC
:103B3000303020712E3C70BD30B56424B4EBA00F42
:103B400002DAC4EBA00300E083100A2493FBF4F430
:103B5000303414720A2493FBF4F504FB153430342A
:103B60005472642491FBF4F430341477642491FB90
:103B7000F4F504FB15140A2594FBF5F4303454775E
:103B80000A2491FBF4F504FB15143034947730BD0E
:103B9000001001404601002047010020480100209C
:103BA00030B480EA010202F0004530F0004221F01A
:103BB000004013D090B1C30DD40DC2F31601C0F371
:103BC0001600E41A41F4000140F400027D349142F1
:103BD00001D3641C00E04900002C02DA30BC002054
:103BE00070474FF400000023914201D3891A034328
:103BF00040084FEA4101F7D151B1914202D14FF053
:103C0000004105E002D24FF0010101E06FF0010137
:103C100003EBC450284430BC00F005B896230022C2
:103C2000114600F009B80029A8BF7047401C4900A0
:103C300008BF20F00100704710B4B0FA80FC00FA11
:103C40000CF050EA010404BF10BC704749B1CCF13C
:103C5000200421FA04F411FA0CF118BF01212143C8
:103C60000843A3EB0C01CB1D4FEA00614FEA102083
:103C700042BF002010BC704700EBC3501044002925
:103C8000A4BF10BC7047401C490008BF20F00100D1
:103C900010BC7047064C074D06E0E06840F0010399
:103CA00094E8070098471034AC42F6D3FCF744FA86
:103CB000603D0008803D000870B58C1810F8015B6D
:103CC00015F0070301D110F8013B2A1106D110F8B5
:103CD000012B03E010F8016B01F8016B5B1EF9D1B9
:103CE0002B0705D40023521E0DD401F8013BFAE73F
:103CF00010F8013BCB1A921C03E013F8015B01F8AA
:103D0000015B521EF9D5A142D8D3002070BD00003E
:103D1000014A024900F013B88F3500084C01002019
:103D200002E008C8121F08C1002AFAD17047704784
:103D3000002001E001C1121F002AFBD170472DE9CC
:103D4000F04116460F460446002503E03946B047C9
:103D5000641C6D1C20780028F8D12846BDE8F0814D
:103D6000803D00080000002050010000B83C000821
:103D70000C3E00085001002028040000303D0008DF
:103D80001184A24A04680901020304060708090C09
:103D90006910051C02040608F35802291059042A68
:103DA000644CF1182061646420322C302C6164FF73
:103DB000FFFF68656172745F726174652E76616C75
:103DC0003D62706D15180D74656D7065722E747896
:103DD000743D22191C6D7022154E73706565641454
:103DE0002E30302E3030143C743132373D307878FC
:103DF000780FCA330FCA340FCA350FCA360FCA3705
:0C3E00000FCA380FBA390FAB32300FA1D7
:0400000508000131BD
:00000001FF
